{
  "_format": "hh-sol-artifact-1",
  "contractName": "BuyMyRoom",
  "sourceName": "contracts/BuyMyRoom.sol",
  "abi": [
    {
      "inputs": [
        {
          "internalType": "address",
          "name": "token",
          "type": "address"
        }
      ],
      "stateMutability": "nonpayable",
      "type": "constructor"
    },
    {
      "inputs": [
        {
          "internalType": "address",
          "name": "sender",
          "type": "address"
        },
        {
          "internalType": "uint256",
          "name": "tokenId",
          "type": "uint256"
        },
        {
          "internalType": "address",
          "name": "owner",
          "type": "address"
        }
      ],
      "name": "ERC721IncorrectOwner",
      "type": "error"
    },
    {
      "inputs": [
        {
          "internalType": "address",
          "name": "operator",
          "type": "address"
        },
        {
          "internalType": "uint256",
          "name": "tokenId",
          "type": "uint256"
        }
      ],
      "name": "ERC721InsufficientApproval",
      "type": "error"
    },
    {
      "inputs": [
        {
          "internalType": "address",
          "name": "approver",
          "type": "address"
        }
      ],
      "name": "ERC721InvalidApprover",
      "type": "error"
    },
    {
      "inputs": [
        {
          "internalType": "address",
          "name": "operator",
          "type": "address"
        }
      ],
      "name": "ERC721InvalidOperator",
      "type": "error"
    },
    {
      "inputs": [
        {
          "internalType": "address",
          "name": "owner",
          "type": "address"
        }
      ],
      "name": "ERC721InvalidOwner",
      "type": "error"
    },
    {
      "inputs": [
        {
          "internalType": "address",
          "name": "receiver",
          "type": "address"
        }
      ],
      "name": "ERC721InvalidReceiver",
      "type": "error"
    },
    {
      "inputs": [
        {
          "internalType": "address",
          "name": "sender",
          "type": "address"
        }
      ],
      "name": "ERC721InvalidSender",
      "type": "error"
    },
    {
      "inputs": [
        {
          "internalType": "uint256",
          "name": "tokenId",
          "type": "uint256"
        }
      ],
      "name": "ERC721NonexistentToken",
      "type": "error"
    },
    {
      "anonymous": false,
      "inputs": [
        {
          "indexed": true,
          "internalType": "address",
          "name": "owner",
          "type": "address"
        },
        {
          "indexed": true,
          "internalType": "address",
          "name": "approved",
          "type": "address"
        },
        {
          "indexed": true,
          "internalType": "uint256",
          "name": "tokenId",
          "type": "uint256"
        }
      ],
      "name": "Approval",
      "type": "event"
    },
    {
      "anonymous": false,
      "inputs": [
        {
          "indexed": true,
          "internalType": "address",
          "name": "owner",
          "type": "address"
        },
        {
          "indexed": true,
          "internalType": "address",
          "name": "operator",
          "type": "address"
        },
        {
          "indexed": false,
          "internalType": "bool",
          "name": "approved",
          "type": "bool"
        }
      ],
      "name": "ApprovalForAll",
      "type": "event"
    },
    {
      "anonymous": false,
      "inputs": [
        {
          "indexed": false,
          "internalType": "uint256",
          "name": "tokenId",
          "type": "uint256"
        },
        {
          "indexed": false,
          "internalType": "uint256",
          "name": "price",
          "type": "uint256"
        },
        {
          "indexed": false,
          "internalType": "address",
          "name": "buyer",
          "type": "address"
        }
      ],
      "name": "HouseBought",
      "type": "event"
    },
    {
      "anonymous": false,
      "inputs": [
        {
          "indexed": false,
          "internalType": "uint256",
          "name": "tokenId",
          "type": "uint256"
        },
        {
          "indexed": false,
          "internalType": "uint256",
          "name": "price",
          "type": "uint256"
        },
        {
          "indexed": false,
          "internalType": "address",
          "name": "owner",
          "type": "address"
        }
      ],
      "name": "HouseListed",
      "type": "event"
    },
    {
      "anonymous": false,
      "inputs": [
        {
          "indexed": true,
          "internalType": "address",
          "name": "from",
          "type": "address"
        },
        {
          "indexed": true,
          "internalType": "address",
          "name": "to",
          "type": "address"
        },
        {
          "indexed": true,
          "internalType": "uint256",
          "name": "tokenId",
          "type": "uint256"
        }
      ],
      "name": "Transfer",
      "type": "event"
    },
    {
      "inputs": [],
      "name": "airDrop",
      "outputs": [],
      "stateMutability": "nonpayable",
      "type": "function"
    },
    {
      "inputs": [
        {
          "internalType": "address",
          "name": "to",
          "type": "address"
        },
        {
          "internalType": "uint256",
          "name": "tokenId",
          "type": "uint256"
        }
      ],
      "name": "approve",
      "outputs": [],
      "stateMutability": "nonpayable",
      "type": "function"
    },
    {
      "inputs": [
        {
          "internalType": "address",
          "name": "owner",
          "type": "address"
        }
      ],
      "name": "balanceOf",
      "outputs": [
        {
          "internalType": "uint256",
          "name": "",
          "type": "uint256"
        }
      ],
      "stateMutability": "view",
      "type": "function"
    },
    {
      "inputs": [
        {
          "internalType": "uint256",
          "name": "tokenId",
          "type": "uint256"
        }
      ],
      "name": "buyHouse",
      "outputs": [],
      "stateMutability": "payable",
      "type": "function"
    },
    {
      "inputs": [],
      "name": "feeRate",
      "outputs": [
        {
          "internalType": "uint256",
          "name": "",
          "type": "uint256"
        }
      ],
      "stateMutability": "view",
      "type": "function"
    },
    {
      "inputs": [
        {
          "internalType": "uint256",
          "name": "tokenId",
          "type": "uint256"
        }
      ],
      "name": "getApproved",
      "outputs": [
        {
          "internalType": "address",
          "name": "",
          "type": "address"
        }
      ],
      "stateMutability": "view",
      "type": "function"
    },
    {
      "inputs": [],
      "name": "getSellingHouseList",
      "outputs": [
        {
          "components": [
            {
              "internalType": "address",
              "name": "owner",
              "type": "address"
            },
            {
              "internalType": "uint256",
              "name": "listedTimestamp",
              "type": "uint256"
            },
            {
              "internalType": "uint256",
              "name": "price",
              "type": "uint256"
            },
            {
              "internalType": "uint256",
              "name": "index",
              "type": "uint256"
            },
            {
              "internalType": "bool",
              "name": "isSelling",
              "type": "bool"
            }
          ],
          "internalType": "struct BuyMyRoom.House[]",
          "name": "",
          "type": "tuple[]"
        }
      ],
      "stateMutability": "view",
      "type": "function"
    },
    {
      "inputs": [],
      "name": "getUserHouseList",
      "outputs": [
        {
          "components": [
            {
              "internalType": "address",
              "name": "owner",
              "type": "address"
            },
            {
              "internalType": "uint256",
              "name": "listedTimestamp",
              "type": "uint256"
            },
            {
              "internalType": "uint256",
              "name": "price",
              "type": "uint256"
            },
            {
              "internalType": "uint256",
              "name": "index",
              "type": "uint256"
            },
            {
              "internalType": "bool",
              "name": "isSelling",
              "type": "bool"
            }
          ],
          "internalType": "struct BuyMyRoom.House[]",
          "name": "",
          "type": "tuple[]"
        }
      ],
      "stateMutability": "view",
      "type": "function"
    },
    {
      "inputs": [],
      "name": "houseIndex",
      "outputs": [
        {
          "internalType": "uint256",
          "name": "",
          "type": "uint256"
        }
      ],
      "stateMutability": "view",
      "type": "function"
    },
    {
      "inputs": [
        {
          "internalType": "uint256",
          "name": "",
          "type": "uint256"
        }
      ],
      "name": "houses",
      "outputs": [
        {
          "internalType": "address",
          "name": "owner",
          "type": "address"
        },
        {
          "internalType": "uint256",
          "name": "listedTimestamp",
          "type": "uint256"
        },
        {
          "internalType": "uint256",
          "name": "price",
          "type": "uint256"
        },
        {
          "internalType": "uint256",
          "name": "index",
          "type": "uint256"
        },
        {
          "internalType": "bool",
          "name": "isSelling",
          "type": "bool"
        }
      ],
      "stateMutability": "view",
      "type": "function"
    },
    {
      "inputs": [
        {
          "internalType": "address",
          "name": "owner",
          "type": "address"
        },
        {
          "internalType": "address",
          "name": "operator",
          "type": "address"
        }
      ],
      "name": "isApprovedForAll",
      "outputs": [
        {
          "internalType": "bool",
          "name": "",
          "type": "bool"
        }
      ],
      "stateMutability": "view",
      "type": "function"
    },
    {
      "inputs": [
        {
          "internalType": "uint256",
          "name": "tokenId",
          "type": "uint256"
        },
        {
          "internalType": "uint256",
          "name": "price",
          "type": "uint256"
        }
      ],
      "name": "listHouse",
      "outputs": [],
      "stateMutability": "nonpayable",
      "type": "function"
    },
    {
      "inputs": [],
      "name": "manager",
      "outputs": [
        {
          "internalType": "address",
          "name": "",
          "type": "address"
        }
      ],
      "stateMutability": "view",
      "type": "function"
    },
    {
      "inputs": [],
      "name": "myERC20",
      "outputs": [
        {
          "internalType": "contract ERC20",
          "name": "",
          "type": "address"
        }
      ],
      "stateMutability": "view",
      "type": "function"
    },
    {
      "inputs": [],
      "name": "name",
      "outputs": [
        {
          "internalType": "string",
          "name": "",
          "type": "string"
        }
      ],
      "stateMutability": "view",
      "type": "function"
    },
    {
      "inputs": [
        {
          "internalType": "uint256",
          "name": "tokenId",
          "type": "uint256"
        }
      ],
      "name": "ownerOf",
      "outputs": [
        {
          "internalType": "address",
          "name": "",
          "type": "address"
        }
      ],
      "stateMutability": "view",
      "type": "function"
    },
    {
      "inputs": [
        {
          "internalType": "address",
          "name": "from",
          "type": "address"
        },
        {
          "internalType": "address",
          "name": "to",
          "type": "address"
        },
        {
          "internalType": "uint256",
          "name": "tokenId",
          "type": "uint256"
        }
      ],
      "name": "safeTransferFrom",
      "outputs": [],
      "stateMutability": "nonpayable",
      "type": "function"
    },
    {
      "inputs": [
        {
          "internalType": "address",
          "name": "from",
          "type": "address"
        },
        {
          "internalType": "address",
          "name": "to",
          "type": "address"
        },
        {
          "internalType": "uint256",
          "name": "tokenId",
          "type": "uint256"
        },
        {
          "internalType": "bytes",
          "name": "data",
          "type": "bytes"
        }
      ],
      "name": "safeTransferFrom",
      "outputs": [],
      "stateMutability": "nonpayable",
      "type": "function"
    },
    {
      "inputs": [
        {
          "internalType": "address",
          "name": "operator",
          "type": "address"
        },
        {
          "internalType": "bool",
          "name": "approved",
          "type": "bool"
        }
      ],
      "name": "setApprovalForAll",
      "outputs": [],
      "stateMutability": "nonpayable",
      "type": "function"
    },
    {
      "inputs": [
        {
          "internalType": "bytes4",
          "name": "interfaceId",
          "type": "bytes4"
        }
      ],
      "name": "supportsInterface",
      "outputs": [
        {
          "internalType": "bool",
          "name": "",
          "type": "bool"
        }
      ],
      "stateMutability": "view",
      "type": "function"
    },
    {
      "inputs": [],
      "name": "symbol",
      "outputs": [
        {
          "internalType": "string",
          "name": "",
          "type": "string"
        }
      ],
      "stateMutability": "view",
      "type": "function"
    },
    {
      "inputs": [
        {
          "internalType": "uint256",
          "name": "tokenId",
          "type": "uint256"
        }
      ],
      "name": "tokenURI",
      "outputs": [
        {
          "internalType": "string",
          "name": "",
          "type": "string"
        }
      ],
      "stateMutability": "view",
      "type": "function"
    },
    {
      "inputs": [
        {
          "internalType": "address",
          "name": "from",
          "type": "address"
        },
        {
          "internalType": "address",
          "name": "to",
          "type": "address"
        },
        {
          "internalType": "uint256",
          "name": "tokenId",
          "type": "uint256"
        }
      ],
      "name": "transferFrom",
      "outputs": [],
      "stateMutability": "nonpayable",
      "type": "function"
    }
  ],
  "bytecode": "0x608060405234801561001057600080fd5b50604051613709380380613709833981810160405281019061003291906101bb565b6040518060400160405280600a81526020017f486f757365546f6b656e000000000000000000000000000000000000000000008152506040518060400160405280601081526020017f486f757365546f6b656e53796d626f6c0000000000000000000000000000000081525081600090816100ad9190610438565b5080600190816100bd9190610438565b50505060006009819055506001600a8190555033600860006101000a81548173ffffffffffffffffffffffffffffffffffffffff021916908373ffffffffffffffffffffffffffffffffffffffff16021790555080600660006101000a81548173ffffffffffffffffffffffffffffffffffffffff021916908373ffffffffffffffffffffffffffffffffffffffff1602179055505061050a565b600080fd5b600073ffffffffffffffffffffffffffffffffffffffff82169050919050565b60006101888261015d565b9050919050565b6101988161017d565b81146101a357600080fd5b50565b6000815190506101b58161018f565b92915050565b6000602082840312156101d1576101d0610158565b5b60006101df848285016101a6565b91505092915050565b600081519050919050565b7f4e487b7100000000000000000000000000000000000000000000000000000000600052604160045260246000fd5b7f4e487b7100000000000000000000000000000000000000000000000000000000600052602260045260246000fd5b6000600282049050600182168061026957607f821691505b60208210810361027c5761027b610222565b5b50919050565b60008190508160005260206000209050919050565b60006020601f8301049050919050565b600082821b905092915050565b6000600883026102e47fffffffffffffffffffffffffffffffffffffffffffffffffffffffffffffffff826102a7565b6102ee86836102a7565b95508019841693508086168417925050509392505050565b6000819050919050565b6000819050919050565b600061033561033061032b84610306565b610310565b610306565b9050919050565b6000819050919050565b61034f8361031a565b61036361035b8261033c565b8484546102b4565b825550505050565b600090565b61037861036b565b610383818484610346565b505050565b5b818110156103a75761039c600082610370565b600181019050610389565b5050565b601f8211156103ec576103bd81610282565b6103c684610297565b810160208510156103d5578190505b6103e96103e185610297565b830182610388565b50505b505050565b600082821c905092915050565b600061040f600019846008026103f1565b1980831691505092915050565b600061042883836103fe565b9150826002028217905092915050565b610441826101e8565b67ffffffffffffffff81111561045a576104596101f3565b5b6104648254610251565b61046f8282856103ab565b600060209050601f8311600181146104a25760008415610490578287015190505b61049a858261041c565b865550610502565b601f1984166104b086610282565b60005b828110156104d8578489015182556001820191506020850194506020810190506104b3565b868310156104f557848901516104f1601f8916826103fe565b8355505b6001600288020188555050505b505050505050565b6131f0806105196000396000f3fe6080604052600436106101405760003560e01c80638f55c1e1116100b6578063b88d4fde1161006f578063b88d4fde14610474578063c87b56dd1461049d578063ca5d0880146104da578063e985e9c5146104f1578063ec79693f1461052e578063eddc42691461055957610140565b80638f55c1e11461036057806395d89b411461038b578063978bbdb9146103b657806399b23178146103e1578063a22cb4651461040a578063aeda852f1461043357610140565b806323b872dd1161010857806323b872dd1461023e57806342842e0e14610267578063481c6a75146102905780636352211e146102bb5780636d3739c4146102f857806370a082311461032357610140565b806301ffc9a71461014557806305655d211461018257806306fdde03146101ad578063081812fc146101d8578063095ea7b314610215575b600080fd5b34801561015157600080fd5b5061016c60048036038101906101679190612486565b610575565b60405161017991906124ce565b60405180910390f35b34801561018e57600080fd5b50610197610657565b6040516101a49190612502565b60405180910390f35b3480156101b957600080fd5b506101c261065d565b6040516101cf91906125ad565b60405180910390f35b3480156101e457600080fd5b506101ff60048036038101906101fa91906125fb565b6106ef565b60405161020c9190612669565b60405180910390f35b34801561022157600080fd5b5061023c600480360381019061023791906126b0565b61070b565b005b34801561024a57600080fd5b50610265600480360381019061026091906126f0565b610721565b005b34801561027357600080fd5b5061028e600480360381019061028991906126f0565b610823565b005b34801561029c57600080fd5b506102a5610843565b6040516102b29190612669565b60405180910390f35b3480156102c757600080fd5b506102e260048036038101906102dd91906125fb565b610869565b6040516102ef9190612669565b60405180910390f35b34801561030457600080fd5b5061030d61087b565b60405161031a91906127a2565b60405180910390f35b34801561032f57600080fd5b5061034a600480360381019061034591906127bd565b6108a1565b6040516103579190612502565b60405180910390f35b34801561036c57600080fd5b5061037561095b565b604051610382919061292e565b60405180910390f35b34801561039757600080fd5b506103a0610b33565b6040516103ad91906125ad565b60405180910390f35b3480156103c257600080fd5b506103cb610bc5565b6040516103d89190612502565b60405180910390f35b3480156103ed57600080fd5b5061040860048036038101906104039190612950565b610bcb565b005b34801561041657600080fd5b50610431600480360381019061042c91906129bc565b610d49565b005b34801561043f57600080fd5b5061045a600480360381019061045591906125fb565b610d5f565b60405161046b9594939291906129fc565b60405180910390f35b34801561048057600080fd5b5061049b60048036038101906104969190612b84565b610dc2565b005b3480156104a957600080fd5b506104c460048036038101906104bf91906125fb565b610ddf565b6040516104d191906125ad565b60405180910390f35b3480156104e657600080fd5b506104ef610e48565b005b3480156104fd57600080fd5b5061051860048036038101906105139190612c07565b610f4f565b60405161052591906124ce565b60405180910390f35b34801561053a57600080fd5b50610543610fe3565b604051610550919061292e565b60405180910390f35b610573600480360381019061056e91906125fb565b6111df565b005b60007f80ac58cd000000000000000000000000000000000000000000000000000000007bffffffffffffffffffffffffffffffffffffffffffffffffffffffff1916827bffffffffffffffffffffffffffffffffffffffffffffffffffffffff1916148061064057507f5b5e139f000000000000000000000000000000000000000000000000000000007bffffffffffffffffffffffffffffffffffffffffffffffffffffffff1916827bffffffffffffffffffffffffffffffffffffffffffffffffffffffff1916145b80610650575061064f82611525565b5b9050919050565b60095481565b60606000805461066c90612c76565b80601f016020809104026020016040519081016040528092919081815260200182805461069890612c76565b80156106e55780601f106106ba576101008083540402835291602001916106e5565b820191906000526020600020905b8154815290600101906020018083116106c857829003601f168201915b5050505050905090565b60006106fa8261158f565b5061070482611617565b9050919050565b61071d8282610718611654565b61165c565b5050565b600073ffffffffffffffffffffffffffffffffffffffff168273ffffffffffffffffffffffffffffffffffffffff16036107935760006040517f64a0ae9200000000000000000000000000000000000000000000000000000000815260040161078a9190612669565b60405180910390fd5b60006107a783836107a2611654565b61166e565b90508373ffffffffffffffffffffffffffffffffffffffff168173ffffffffffffffffffffffffffffffffffffffff161461081d578382826040517f64283d7b00000000000000000000000000000000000000000000000000000000815260040161081493929190612ca7565b60405180910390fd5b50505050565b61083e83838360405180602001604052806000815250610dc2565b505050565b600860009054906101000a900473ffffffffffffffffffffffffffffffffffffffff1681565b60006108748261158f565b9050919050565b600660009054906101000a900473ffffffffffffffffffffffffffffffffffffffff1681565b60008073ffffffffffffffffffffffffffffffffffffffff168273ffffffffffffffffffffffffffffffffffffffff16036109145760006040517f89c62b6400000000000000000000000000000000000000000000000000000000815260040161090b9190612669565b60405180910390fd5b600360008373ffffffffffffffffffffffffffffffffffffffff1673ffffffffffffffffffffffffffffffffffffffff168152602001908152602001600020549050919050565b60606000805b6009548110156109b0576007600082815260200190815260200160002060040160009054906101000a900460ff16156109a357818061099f90612d0d565b9250505b8080600101915050610961565b5060008167ffffffffffffffff8111156109cd576109cc612a59565b5b604051908082528060200260200182016040528015610a0657816020015b6109f36123d3565b8152602001906001900390816109eb5790505b5090506000915060005b600954811015610b2a576007600082815260200190815260200160002060040160009054906101000a900460ff1615610b1d57600760008281526020019081526020016000206040518060a00160405290816000820160009054906101000a900473ffffffffffffffffffffffffffffffffffffffff1673ffffffffffffffffffffffffffffffffffffffff1673ffffffffffffffffffffffffffffffffffffffff1681526020016001820154815260200160028201548152602001600382015481526020016004820160009054906101000a900460ff161515151581525050828481518110610b0357610b02612d55565b5b60200260200101819052508280610b1990612d0d565b9350505b8080600101915050610a10565b50809250505090565b606060018054610b4290612c76565b80601f0160208091040260200160405190810160405280929190818152602001828054610b6e90612c76565b8015610bbb5780601f10610b9057610100808354040283529160200191610bbb565b820191906000526020600020905b815481529060010190602001808311610b9e57829003601f168201915b5050505050905090565b600a5481565b3373ffffffffffffffffffffffffffffffffffffffff16610beb83610869565b73ffffffffffffffffffffffffffffffffffffffff1614610c41576040517f08c379a0000000000000000000000000000000000000000000000000000000008152600401610c3890612dd0565b60405180910390fd5b6007600083815260200190815260200160002060040160009054906101000a900460ff1615610ca5576040517f08c379a0000000000000000000000000000000000000000000000000000000008152600401610c9c90612e3c565b60405180910390fd5b42600760008481526020019081526020016000206001018190555080600760008481526020019081526020016000206002018190555060016007600084815260200190815260200160002060040160006101000a81548160ff0219169083151502179055507f60b3e540896cf4a419e7b7274a1f1282223f5d92ca6f0152cf820fe457fb4843828233604051610d3d93929190612e5c565b60405180910390a15050565b610d5b610d54611654565b8383611888565b5050565b60076020528060005260406000206000915090508060000160009054906101000a900473ffffffffffffffffffffffffffffffffffffffff16908060010154908060020154908060030154908060040160009054906101000a900460ff16905085565b610dcd848484610721565b610dd9848484846119f7565b50505050565b6060610dea8261158f565b506000610df5611bae565b90506000815111610e155760405180602001604052806000815250610e40565b80610e1f84611bc5565b604051602001610e30929190612ecf565b6040516020818303038152906040525b915050919050565b610e5433600954611c93565b6040518060a001604052803373ffffffffffffffffffffffffffffffffffffffff168152602001600081526020016000815260200160095481526020016000151581525060076000600954815260200190815260200160002060008201518160000160006101000a81548173ffffffffffffffffffffffffffffffffffffffff021916908373ffffffffffffffffffffffffffffffffffffffff16021790555060208201518160010155604082015181600201556060820151816003015560808201518160040160006101000a81548160ff02191690831515021790555090505060096000815480929190610f4890612d0d565b9190505550565b6000600560008473ffffffffffffffffffffffffffffffffffffffff1673ffffffffffffffffffffffffffffffffffffffff16815260200190815260200160002060008373ffffffffffffffffffffffffffffffffffffffff1673ffffffffffffffffffffffffffffffffffffffff16815260200190815260200160002060009054906101000a900460ff16905092915050565b60606000805b60095481101561104a573373ffffffffffffffffffffffffffffffffffffffff1661101382610869565b73ffffffffffffffffffffffffffffffffffffffff160361103d57818061103990612d0d565b9250505b8080600101915050610fe9565b5060008167ffffffffffffffff81111561106757611066612a59565b5b6040519080825280602002602001820160405280156110a057816020015b61108d6123d3565b8152602001906001900390816110855790505b5090506000915060005b6009548110156111d6573373ffffffffffffffffffffffffffffffffffffffff166110d482610869565b73ffffffffffffffffffffffffffffffffffffffff16036111c957600760008281526020019081526020016000206040518060a00160405290816000820160009054906101000a900473ffffffffffffffffffffffffffffffffffffffff1673ffffffffffffffffffffffffffffffffffffffff1673ffffffffffffffffffffffffffffffffffffffff1681526020016001820154815260200160028201548152602001600382015481526020016004820160009054906101000a900460ff1615151515815250508284815181106111af576111ae612d55565b5b602002602001018190525082806111c590612d0d565b9350505b80806001019150506110aa565b50809250505090565b6007600082815260200190815260200160002060040160009054906101000a900460ff16611242576040517f08c379a000000000000000000000000000000000000000000000000000000000815260040161123990612f3f565b60405180910390fd5b600061124d82610869565b90506000620186a06007600085815260200190815260200160002060020154600a546007600087815260200190815260200160002060010154426112919190612f5f565b61129b9190612f93565b6112a59190612f93565b6112af9190613004565b905060008160076000868152602001908152602001600020600201546112d59190612f5f565b9050600660009054906101000a900473ffffffffffffffffffffffffffffffffffffffff1673ffffffffffffffffffffffffffffffffffffffff166323b872dd3385846040518463ffffffff1660e01b815260040161133693929190613035565b6020604051808303816000875af1158015611355573d6000803e3d6000fd5b505050506040513d601f19601f820116820180604052508101906113799190613081565b50600660009054906101000a900473ffffffffffffffffffffffffffffffffffffffff1673ffffffffffffffffffffffffffffffffffffffff166323b872dd33600860009054906101000a900473ffffffffffffffffffffffffffffffffffffffff16856040518463ffffffff1660e01b81526004016113fb93929190613035565b6020604051808303816000875af115801561141a573d6000803e3d6000fd5b505050506040513d601f19601f8201168201806040525081019061143e9190613081565b5060006007600086815260200190815260200160002060040160006101000a81548160ff021916908315150217905550611479833386611d8c565b336007600086815260200190815260200160002060000160006101000a81548173ffffffffffffffffffffffffffffffffffffffff021916908373ffffffffffffffffffffffffffffffffffffffff1602179055507fbf53448f4289b0081032c4d84e812945965589c060691ca37a21ad4c2a90c8ba8460076000878152602001908152602001600020600201543360405161151793929190612e5c565b60405180910390a150505050565b60007f01ffc9a7000000000000000000000000000000000000000000000000000000007bffffffffffffffffffffffffffffffffffffffffffffffffffffffff1916827bffffffffffffffffffffffffffffffffffffffffffffffffffffffff1916149050919050565b60008061159b83611ef9565b9050600073ffffffffffffffffffffffffffffffffffffffff168173ffffffffffffffffffffffffffffffffffffffff160361160e57826040517f7e2732890000000000000000000000000000000000000000000000000000000081526004016116059190612502565b60405180910390fd5b80915050919050565b60006004600083815260200190815260200160002060009054906101000a900473ffffffffffffffffffffffffffffffffffffffff169050919050565b600033905090565b6116698383836001611f36565b505050565b60008061167a84611ef9565b9050600073ffffffffffffffffffffffffffffffffffffffff168373ffffffffffffffffffffffffffffffffffffffff16146116bc576116bb8184866120fb565b5b600073ffffffffffffffffffffffffffffffffffffffff168173ffffffffffffffffffffffffffffffffffffffff161461174d576116fe600085600080611f36565b6001600360008373ffffffffffffffffffffffffffffffffffffffff1673ffffffffffffffffffffffffffffffffffffffff168152602001908152602001600020600082825403925050819055505b600073ffffffffffffffffffffffffffffffffffffffff168573ffffffffffffffffffffffffffffffffffffffff16146117d0576001600360008773ffffffffffffffffffffffffffffffffffffffff1673ffffffffffffffffffffffffffffffffffffffff168152602001908152602001600020600082825401925050819055505b846002600086815260200190815260200160002060006101000a81548173ffffffffffffffffffffffffffffffffffffffff021916908373ffffffffffffffffffffffffffffffffffffffff160217905550838573ffffffffffffffffffffffffffffffffffffffff168273ffffffffffffffffffffffffffffffffffffffff167fddf252ad1be2c89b69c2b068fc378daa952ba7f163c4a11628f55a4df523b3ef60405160405180910390a4809150509392505050565b600073ffffffffffffffffffffffffffffffffffffffff168273ffffffffffffffffffffffffffffffffffffffff16036118f957816040517f5b08ba180000000000000000000000000000000000000000000000000000000081526004016118f09190612669565b60405180910390fd5b80600560008573ffffffffffffffffffffffffffffffffffffffff1673ffffffffffffffffffffffffffffffffffffffff16815260200190815260200160002060008473ffffffffffffffffffffffffffffffffffffffff1673ffffffffffffffffffffffffffffffffffffffff16815260200190815260200160002060006101000a81548160ff0219169083151502179055508173ffffffffffffffffffffffffffffffffffffffff168373ffffffffffffffffffffffffffffffffffffffff167f17307eab39ab6107e8899845ad3d59bd9653f200f220920489ca2b5937696c31836040516119ea91906124ce565b60405180910390a3505050565b60008373ffffffffffffffffffffffffffffffffffffffff163b1115611ba8578273ffffffffffffffffffffffffffffffffffffffff1663150b7a02611a3b611654565b8685856040518563ffffffff1660e01b8152600401611a5d9493929190613103565b6020604051808303816000875af1925050508015611a9957506040513d601f19601f82011682018060405250810190611a969190613164565b60015b611b1d573d8060008114611ac9576040519150601f19603f3d011682016040523d82523d6000602084013e611ace565b606091505b506000815103611b1557836040517f64a0ae92000000000000000000000000000000000000000000000000000000008152600401611b0c9190612669565b60405180910390fd5b805181602001fd5b63150b7a0260e01b7bffffffffffffffffffffffffffffffffffffffffffffffffffffffff1916817bffffffffffffffffffffffffffffffffffffffffffffffffffffffff191614611ba657836040517f64a0ae92000000000000000000000000000000000000000000000000000000008152600401611b9d9190612669565b60405180910390fd5b505b50505050565b606060405180602001604052806000815250905090565b606060006001611bd4846121bf565b01905060008167ffffffffffffffff811115611bf357611bf2612a59565b5b6040519080825280601f01601f191660200182016040528015611c255781602001600182028036833780820191505090505b509050600082602001820190505b600115611c88578080600190039150507f3031323334353637383961626364656600000000000000000000000000000000600a86061a8153600a8581611c7c57611c7b612fd5565b5b04945060008503611c33575b819350505050919050565b600073ffffffffffffffffffffffffffffffffffffffff168273ffffffffffffffffffffffffffffffffffffffff1603611d055760006040517f64a0ae92000000000000000000000000000000000000000000000000000000008152600401611cfc9190612669565b60405180910390fd5b6000611d138383600061166e565b9050600073ffffffffffffffffffffffffffffffffffffffff168173ffffffffffffffffffffffffffffffffffffffff1614611d875760006040517f73c6ac6e000000000000000000000000000000000000000000000000000000008152600401611d7e9190612669565b60405180910390fd5b505050565b600073ffffffffffffffffffffffffffffffffffffffff168273ffffffffffffffffffffffffffffffffffffffff1603611dfe5760006040517f64a0ae92000000000000000000000000000000000000000000000000000000008152600401611df59190612669565b60405180910390fd5b6000611e0c8383600061166e565b9050600073ffffffffffffffffffffffffffffffffffffffff168173ffffffffffffffffffffffffffffffffffffffff1603611e7f57816040517f7e273289000000000000000000000000000000000000000000000000000000008152600401611e769190612502565b60405180910390fd5b8373ffffffffffffffffffffffffffffffffffffffff168173ffffffffffffffffffffffffffffffffffffffff1614611ef3578382826040517f64283d7b000000000000000000000000000000000000000000000000000000008152600401611eea93929190612ca7565b60405180910390fd5b50505050565b60006002600083815260200190815260200160002060009054906101000a900473ffffffffffffffffffffffffffffffffffffffff169050919050565b8080611f6f5750600073ffffffffffffffffffffffffffffffffffffffff168273ffffffffffffffffffffffffffffffffffffffff1614155b156120a3576000611f7f8461158f565b9050600073ffffffffffffffffffffffffffffffffffffffff168373ffffffffffffffffffffffffffffffffffffffff1614158015611fea57508273ffffffffffffffffffffffffffffffffffffffff168173ffffffffffffffffffffffffffffffffffffffff1614155b8015611ffd5750611ffb8184610f4f565b155b1561203f57826040517fa9fbf51f0000000000000000000000000000000000000000000000000000000081526004016120369190612669565b60405180910390fd5b81156120a157838573ffffffffffffffffffffffffffffffffffffffff168273ffffffffffffffffffffffffffffffffffffffff167f8c5be1e5ebec7d5bd14f71427d1e84f3dd0314c0f7b2291e5b200ac8c7c3b92560405160405180910390a45b505b836004600085815260200190815260200160002060006101000a81548173ffffffffffffffffffffffffffffffffffffffff021916908373ffffffffffffffffffffffffffffffffffffffff16021790555050505050565b612106838383612312565b6121ba57600073ffffffffffffffffffffffffffffffffffffffff168373ffffffffffffffffffffffffffffffffffffffff160361217b57806040517f7e2732890000000000000000000000000000000000000000000000000000000081526004016121729190612502565b60405180910390fd5b81816040517f177e802f0000000000000000000000000000000000000000000000000000000081526004016121b1929190613191565b60405180910390fd5b505050565b600080600090507a184f03e93ff9f4daa797ed6e38ed64bf6a1f010000000000000000831061221d577a184f03e93ff9f4daa797ed6e38ed64bf6a1f010000000000000000838161221357612212612fd5565b5b0492506040810190505b6d04ee2d6d415b85acef8100000000831061225a576d04ee2d6d415b85acef810000000083816122505761224f612fd5565b5b0492506020810190505b662386f26fc10000831061228957662386f26fc10000838161227f5761227e612fd5565b5b0492506010810190505b6305f5e10083106122b2576305f5e10083816122a8576122a7612fd5565b5b0492506008810190505b61271083106122d75761271083816122cd576122cc612fd5565b5b0492506004810190505b606483106122fa57606483816122f0576122ef612fd5565b5b0492506002810190505b600a8310612309576001810190505b80915050919050565b60008073ffffffffffffffffffffffffffffffffffffffff168373ffffffffffffffffffffffffffffffffffffffff16141580156123ca57508273ffffffffffffffffffffffffffffffffffffffff168473ffffffffffffffffffffffffffffffffffffffff16148061238b575061238a8484610f4f565b5b806123c957508273ffffffffffffffffffffffffffffffffffffffff166123b183611617565b73ffffffffffffffffffffffffffffffffffffffff16145b5b90509392505050565b6040518060a00160405280600073ffffffffffffffffffffffffffffffffffffffff1681526020016000815260200160008152602001600081526020016000151581525090565b6000604051905090565b600080fd5b600080fd5b60007fffffffff0000000000000000000000000000000000000000000000000000000082169050919050565b6124638161242e565b811461246e57600080fd5b50565b6000813590506124808161245a565b92915050565b60006020828403121561249c5761249b612424565b5b60006124aa84828501612471565b91505092915050565b60008115159050919050565b6124c8816124b3565b82525050565b60006020820190506124e360008301846124bf565b92915050565b6000819050919050565b6124fc816124e9565b82525050565b600060208201905061251760008301846124f3565b92915050565b600081519050919050565b600082825260208201905092915050565b60005b8381101561255757808201518184015260208101905061253c565b60008484015250505050565b6000601f19601f8301169050919050565b600061257f8261251d565b6125898185612528565b9350612599818560208601612539565b6125a281612563565b840191505092915050565b600060208201905081810360008301526125c78184612574565b905092915050565b6125d8816124e9565b81146125e357600080fd5b50565b6000813590506125f5816125cf565b92915050565b60006020828403121561261157612610612424565b5b600061261f848285016125e6565b91505092915050565b600073ffffffffffffffffffffffffffffffffffffffff82169050919050565b600061265382612628565b9050919050565b61266381612648565b82525050565b600060208201905061267e600083018461265a565b92915050565b61268d81612648565b811461269857600080fd5b50565b6000813590506126aa81612684565b92915050565b600080604083850312156126c7576126c6612424565b5b60006126d58582860161269b565b92505060206126e6858286016125e6565b9150509250929050565b60008060006060848603121561270957612708612424565b5b60006127178682870161269b565b93505060206127288682870161269b565b9250506040612739868287016125e6565b9150509250925092565b6000819050919050565b600061276861276361275e84612628565b612743565b612628565b9050919050565b600061277a8261274d565b9050919050565b600061278c8261276f565b9050919050565b61279c81612781565b82525050565b60006020820190506127b76000830184612793565b92915050565b6000602082840312156127d3576127d2612424565b5b60006127e18482850161269b565b91505092915050565b600081519050919050565b600082825260208201905092915050565b6000819050602082019050919050565b61281f81612648565b82525050565b61282e816124e9565b82525050565b61283d816124b3565b82525050565b60a0820160008201516128596000850182612816565b50602082015161286c6020850182612825565b50604082015161287f6040850182612825565b5060608201516128926060850182612825565b5060808201516128a56080850182612834565b50505050565b60006128b78383612843565b60a08301905092915050565b6000602082019050919050565b60006128db826127ea565b6128e581856127f5565b93506128f083612806565b8060005b8381101561292157815161290888826128ab565b9750612913836128c3565b9250506001810190506128f4565b5085935050505092915050565b6000602082019050818103600083015261294881846128d0565b905092915050565b6000806040838503121561296757612966612424565b5b6000612975858286016125e6565b9250506020612986858286016125e6565b9150509250929050565b612999816124b3565b81146129a457600080fd5b50565b6000813590506129b681612990565b92915050565b600080604083850312156129d3576129d2612424565b5b60006129e18582860161269b565b92505060206129f2858286016129a7565b9150509250929050565b600060a082019050612a11600083018861265a565b612a1e60208301876124f3565b612a2b60408301866124f3565b612a3860608301856124f3565b612a4560808301846124bf565b9695505050505050565b600080fd5b600080fd5b7f4e487b7100000000000000000000000000000000000000000000000000000000600052604160045260246000fd5b612a9182612563565b810181811067ffffffffffffffff82111715612ab057612aaf612a59565b5b80604052505050565b6000612ac361241a565b9050612acf8282612a88565b919050565b600067ffffffffffffffff821115612aef57612aee612a59565b5b612af882612563565b9050602081019050919050565b82818337600083830152505050565b6000612b27612b2284612ad4565b612ab9565b905082815260208101848484011115612b4357612b42612a54565b5b612b4e848285612b05565b509392505050565b600082601f830112612b6b57612b6a612a4f565b5b8135612b7b848260208601612b14565b91505092915050565b60008060008060808587031215612b9e57612b9d612424565b5b6000612bac8782880161269b565b9450506020612bbd8782880161269b565b9350506040612bce878288016125e6565b925050606085013567ffffffffffffffff811115612bef57612bee612429565b5b612bfb87828801612b56565b91505092959194509250565b60008060408385031215612c1e57612c1d612424565b5b6000612c2c8582860161269b565b9250506020612c3d8582860161269b565b9150509250929050565b7f4e487b7100000000000000000000000000000000000000000000000000000000600052602260045260246000fd5b60006002820490506001821680612c8e57607f821691505b602082108103612ca157612ca0612c47565b5b50919050565b6000606082019050612cbc600083018661265a565b612cc960208301856124f3565b612cd6604083018461265a565b949350505050565b7f4e487b7100000000000000000000000000000000000000000000000000000000600052601160045260246000fd5b6000612d18826124e9565b91507fffffffffffffffffffffffffffffffffffffffffffffffffffffffffffffffff8203612d4a57612d49612cde565b5b600182019050919050565b7f4e487b7100000000000000000000000000000000000000000000000000000000600052603260045260246000fd5b7f4e6f7420746865206f776e6572206f662074686520686f757365000000000000600082015250565b6000612dba601a83612528565b9150612dc582612d84565b602082019050919050565b60006020820190508181036000830152612de981612dad565b9050919050565b7f54686520686f75736520697320616c72656164792073656c6c696e6700000000600082015250565b6000612e26601c83612528565b9150612e3182612df0565b602082019050919050565b60006020820190508181036000830152612e5581612e19565b9050919050565b6000606082019050612e7160008301866124f3565b612e7e60208301856124f3565b612e8b604083018461265a565b949350505050565b600081905092915050565b6000612ea98261251d565b612eb38185612e93565b9350612ec3818560208601612539565b80840191505092915050565b6000612edb8285612e9e565b9150612ee78284612e9e565b91508190509392505050565b7f54686520686f757365206973206e6f742073656c6c696e670000000000000000600082015250565b6000612f29601883612528565b9150612f3482612ef3565b602082019050919050565b60006020820190508181036000830152612f5881612f1c565b9050919050565b6000612f6a826124e9565b9150612f75836124e9565b9250828203905081811115612f8d57612f8c612cde565b5b92915050565b6000612f9e826124e9565b9150612fa9836124e9565b9250828202612fb7816124e9565b91508282048414831517612fce57612fcd612cde565b5b5092915050565b7f4e487b7100000000000000000000000000000000000000000000000000000000600052601260045260246000fd5b600061300f826124e9565b915061301a836124e9565b92508261302a57613029612fd5565b5b828204905092915050565b600060608201905061304a600083018661265a565b613057602083018561265a565b61306460408301846124f3565b949350505050565b60008151905061307b81612990565b92915050565b60006020828403121561309757613096612424565b5b60006130a58482850161306c565b91505092915050565b600081519050919050565b600082825260208201905092915050565b60006130d5826130ae565b6130df81856130b9565b93506130ef818560208601612539565b6130f881612563565b840191505092915050565b6000608082019050613118600083018761265a565b613125602083018661265a565b61313260408301856124f3565b818103606083015261314481846130ca565b905095945050505050565b60008151905061315e8161245a565b92915050565b60006020828403121561317a57613179612424565b5b60006131888482850161314f565b91505092915050565b60006040820190506131a6600083018561265a565b6131b360208301846124f3565b939250505056fea2646970667358221220185aa82c8b6b60fb833e38353e6fdb5ffb42e56f4856d6e55d87a12394887d9c64736f6c634300081b0033",
  "linkReferences": {},
  "deployedLinkReferences": {}
}