{
  "_format": "hh-sol-artifact-1",
  "contractName": "SimpleSwap",
  "sourceName": "contracts/SimpleSwap.sol",
  "abi": [
    {
      "inputs": [
        {
          "internalType": "address",
          "name": "_token1",
          "type": "address"
        }
      ],
      "stateMutability": "nonpayable",
      "type": "constructor"
    },
    {
      "inputs": [
        {
          "internalType": "address",
          "name": "spender",
          "type": "address"
        },
        {
          "internalType": "uint256",
          "name": "allowance",
          "type": "uint256"
        },
        {
          "internalType": "uint256",
          "name": "needed",
          "type": "uint256"
        }
      ],
      "name": "ERC20InsufficientAllowance",
      "type": "error"
    },
    {
      "inputs": [
        {
          "internalType": "address",
          "name": "sender",
          "type": "address"
        },
        {
          "internalType": "uint256",
          "name": "balance",
          "type": "uint256"
        },
        {
          "internalType": "uint256",
          "name": "needed",
          "type": "uint256"
        }
      ],
      "name": "ERC20InsufficientBalance",
      "type": "error"
    },
    {
      "inputs": [
        {
          "internalType": "address",
          "name": "approver",
          "type": "address"
        }
      ],
      "name": "ERC20InvalidApprover",
      "type": "error"
    },
    {
      "inputs": [
        {
          "internalType": "address",
          "name": "receiver",
          "type": "address"
        }
      ],
      "name": "ERC20InvalidReceiver",
      "type": "error"
    },
    {
      "inputs": [
        {
          "internalType": "address",
          "name": "sender",
          "type": "address"
        }
      ],
      "name": "ERC20InvalidSender",
      "type": "error"
    },
    {
      "inputs": [
        {
          "internalType": "address",
          "name": "spender",
          "type": "address"
        }
      ],
      "name": "ERC20InvalidSpender",
      "type": "error"
    },
    {
      "anonymous": false,
      "inputs": [
        {
          "indexed": true,
          "internalType": "address",
          "name": "owner",
          "type": "address"
        },
        {
          "indexed": true,
          "internalType": "address",
          "name": "spender",
          "type": "address"
        },
        {
          "indexed": false,
          "internalType": "uint256",
          "name": "value",
          "type": "uint256"
        }
      ],
      "name": "Approval",
      "type": "event"
    },
    {
      "anonymous": false,
      "inputs": [
        {
          "indexed": true,
          "internalType": "address",
          "name": "sender",
          "type": "address"
        },
        {
          "indexed": false,
          "internalType": "uint256",
          "name": "amount0",
          "type": "uint256"
        },
        {
          "indexed": false,
          "internalType": "uint256",
          "name": "amount1",
          "type": "uint256"
        }
      ],
      "name": "Burn",
      "type": "event"
    },
    {
      "anonymous": false,
      "inputs": [
        {
          "indexed": true,
          "internalType": "address",
          "name": "sender",
          "type": "address"
        },
        {
          "indexed": false,
          "internalType": "uint256",
          "name": "amount0",
          "type": "uint256"
        },
        {
          "indexed": false,
          "internalType": "uint256",
          "name": "amount1",
          "type": "uint256"
        }
      ],
      "name": "Mint",
      "type": "event"
    },
    {
      "anonymous": false,
      "inputs": [
        {
          "indexed": true,
          "internalType": "address",
          "name": "from",
          "type": "address"
        },
        {
          "indexed": true,
          "internalType": "address",
          "name": "to",
          "type": "address"
        },
        {
          "indexed": false,
          "internalType": "uint256",
          "name": "value",
          "type": "uint256"
        }
      ],
      "name": "Transfer",
      "type": "event"
    },
    {
      "inputs": [
        {
          "internalType": "uint256",
          "name": "amount1Desired",
          "type": "uint256"
        }
      ],
      "name": "addLiquidity",
      "outputs": [
        {
          "internalType": "uint256",
          "name": "liquidity",
          "type": "uint256"
        }
      ],
      "stateMutability": "payable",
      "type": "function"
    },
    {
      "inputs": [
        {
          "internalType": "address",
          "name": "owner",
          "type": "address"
        },
        {
          "internalType": "address",
          "name": "spender",
          "type": "address"
        }
      ],
      "name": "allowance",
      "outputs": [
        {
          "internalType": "uint256",
          "name": "",
          "type": "uint256"
        }
      ],
      "stateMutability": "view",
      "type": "function"
    },
    {
      "inputs": [
        {
          "internalType": "address",
          "name": "spender",
          "type": "address"
        },
        {
          "internalType": "uint256",
          "name": "value",
          "type": "uint256"
        }
      ],
      "name": "approve",
      "outputs": [
        {
          "internalType": "bool",
          "name": "",
          "type": "bool"
        }
      ],
      "stateMutability": "nonpayable",
      "type": "function"
    },
    {
      "inputs": [
        {
          "internalType": "address",
          "name": "account",
          "type": "address"
        }
      ],
      "name": "balanceOf",
      "outputs": [
        {
          "internalType": "uint256",
          "name": "",
          "type": "uint256"
        }
      ],
      "stateMutability": "view",
      "type": "function"
    },
    {
      "inputs": [],
      "name": "decimals",
      "outputs": [
        {
          "internalType": "uint8",
          "name": "",
          "type": "uint8"
        }
      ],
      "stateMutability": "view",
      "type": "function"
    },
    {
      "inputs": [
        {
          "internalType": "uint256",
          "name": "amountIn",
          "type": "uint256"
        },
        {
          "internalType": "uint256",
          "name": "reserveIn",
          "type": "uint256"
        },
        {
          "internalType": "uint256",
          "name": "reserveOut",
          "type": "uint256"
        }
      ],
      "name": "getAmountOut",
      "outputs": [
        {
          "internalType": "uint256",
          "name": "amountOut",
          "type": "uint256"
        }
      ],
      "stateMutability": "pure",
      "type": "function"
    },
    {
      "inputs": [
        {
          "internalType": "uint256",
          "name": "amountIn",
          "type": "uint256"
        }
      ],
      "name": "getERC20ForETH",
      "outputs": [
        {
          "internalType": "uint256",
          "name": "amountOut",
          "type": "uint256"
        }
      ],
      "stateMutability": "view",
      "type": "function"
    },
    {
      "inputs": [
        {
          "internalType": "uint256",
          "name": "amountIn",
          "type": "uint256"
        }
      ],
      "name": "getETHForERC20",
      "outputs": [
        {
          "internalType": "uint256",
          "name": "amountOut",
          "type": "uint256"
        }
      ],
      "stateMutability": "view",
      "type": "function"
    },
    {
      "inputs": [],
      "name": "name",
      "outputs": [
        {
          "internalType": "string",
          "name": "",
          "type": "string"
        }
      ],
      "stateMutability": "view",
      "type": "function"
    },
    {
      "inputs": [],
      "name": "reserve0",
      "outputs": [
        {
          "internalType": "uint256",
          "name": "",
          "type": "uint256"
        }
      ],
      "stateMutability": "view",
      "type": "function"
    },
    {
      "inputs": [],
      "name": "reserve1",
      "outputs": [
        {
          "internalType": "uint256",
          "name": "",
          "type": "uint256"
        }
      ],
      "stateMutability": "view",
      "type": "function"
    },
    {
      "inputs": [
        {
          "internalType": "uint256",
          "name": "amountIn",
          "type": "uint256"
        }
      ],
      "name": "swapERC20ForETH",
      "outputs": [
        {
          "internalType": "uint256",
          "name": "amountOut",
          "type": "uint256"
        }
      ],
      "stateMutability": "nonpayable",
      "type": "function"
    },
    {
      "inputs": [],
      "name": "swapETHForERC20",
      "outputs": [
        {
          "internalType": "uint256",
          "name": "amountOut",
          "type": "uint256"
        }
      ],
      "stateMutability": "payable",
      "type": "function"
    },
    {
      "inputs": [],
      "name": "symbol",
      "outputs": [
        {
          "internalType": "string",
          "name": "",
          "type": "string"
        }
      ],
      "stateMutability": "view",
      "type": "function"
    },
    {
      "inputs": [],
      "name": "token1",
      "outputs": [
        {
          "internalType": "contract MyERC20",
          "name": "",
          "type": "address"
        }
      ],
      "stateMutability": "view",
      "type": "function"
    },
    {
      "inputs": [],
      "name": "totalSupply",
      "outputs": [
        {
          "internalType": "uint256",
          "name": "",
          "type": "uint256"
        }
      ],
      "stateMutability": "view",
      "type": "function"
    },
    {
      "inputs": [
        {
          "internalType": "address",
          "name": "to",
          "type": "address"
        },
        {
          "internalType": "uint256",
          "name": "value",
          "type": "uint256"
        }
      ],
      "name": "transfer",
      "outputs": [
        {
          "internalType": "bool",
          "name": "",
          "type": "bool"
        }
      ],
      "stateMutability": "nonpayable",
      "type": "function"
    },
    {
      "inputs": [
        {
          "internalType": "address",
          "name": "from",
          "type": "address"
        },
        {
          "internalType": "address",
          "name": "to",
          "type": "address"
        },
        {
          "internalType": "uint256",
          "name": "value",
          "type": "uint256"
        }
      ],
      "name": "transferFrom",
      "outputs": [
        {
          "internalType": "bool",
          "name": "",
          "type": "bool"
        }
      ],
      "stateMutability": "nonpayable",
      "type": "function"
    }
  ],
  "bytecode": "0x608060405234801561001057600080fd5b50604051611ffe380380611ffe8339818101604052810190610032919061016a565b6040518060400160405280600a81526020017f53696d706c6553776170000000000000000000000000000000000000000000008152506040518060400160405280600281526020017f535300000000000000000000000000000000000000000000000000000000000081525081600390816100ad91906103e7565b5080600490816100bd91906103e7565b50505080600560006101000a81548173ffffffffffffffffffffffffffffffffffffffff021916908373ffffffffffffffffffffffffffffffffffffffff160217905550506104b9565b600080fd5b600073ffffffffffffffffffffffffffffffffffffffff82169050919050565b60006101378261010c565b9050919050565b6101478161012c565b811461015257600080fd5b50565b6000815190506101648161013e565b92915050565b6000602082840312156101805761017f610107565b5b600061018e84828501610155565b91505092915050565b600081519050919050565b7f4e487b7100000000000000000000000000000000000000000000000000000000600052604160045260246000fd5b7f4e487b7100000000000000000000000000000000000000000000000000000000600052602260045260246000fd5b6000600282049050600182168061021857607f821691505b60208210810361022b5761022a6101d1565b5b50919050565b60008190508160005260206000209050919050565b60006020601f8301049050919050565b600082821b905092915050565b6000600883026102937fffffffffffffffffffffffffffffffffffffffffffffffffffffffffffffffff82610256565b61029d8683610256565b95508019841693508086168417925050509392505050565b6000819050919050565b6000819050919050565b60006102e46102df6102da846102b5565b6102bf565b6102b5565b9050919050565b6000819050919050565b6102fe836102c9565b61031261030a826102eb565b848454610263565b825550505050565b600090565b61032761031a565b6103328184846102f5565b505050565b5b818110156103565761034b60008261031f565b600181019050610338565b5050565b601f82111561039b5761036c81610231565b61037584610246565b81016020851015610384578190505b61039861039085610246565b830182610337565b50505b505050565b600082821c905092915050565b60006103be600019846008026103a0565b1980831691505092915050565b60006103d783836103ad565b9150826002028217905092915050565b6103f082610197565b67ffffffffffffffff811115610409576104086101a2565b5b6104138254610200565b61041e82828561035a565b600060209050601f831160018114610451576000841561043f578287015190505b61044985826103cb565b8655506104b1565b601f19841661045f86610231565b60005b8281101561048757848901518255600182019150602085019450602081019050610462565b868310156104a457848901516104a0601f8916826103ad565b8355505b6001600288020188555050505b505050505050565b611b36806104c86000396000f3fe6080604052600436106101095760003560e01c80636acd02ee116100955780638f4940bc116100645780638f4940bc146103a157806395d89b41146103de578063a9059cbb14610409578063d21220a714610446578063dd62ed3e1461047157610109565b80636acd02ee146102cc5780636c6752f1146102ea57806370a08231146103275780637226ec441461036457610109565b806323b872dd116100dc57806323b872dd146101de578063313ce5671461021b578063443cb4bc1461024657806351c6590a146102715780635a76f25e146102a157610109565b8063054d50d41461010e57806306fdde031461014b578063095ea7b31461017657806318160ddd146101b3575b600080fd5b34801561011a57600080fd5b506101356004803603810190610130919061133f565b6104ae565b60405161014291906113a1565b60405180910390f35b34801561015757600080fd5b5061016061056c565b60405161016d919061144c565b60405180910390f35b34801561018257600080fd5b5061019d600480360381019061019891906114cc565b6105fe565b6040516101aa9190611527565b60405180910390f35b3480156101bf57600080fd5b506101c8610621565b6040516101d591906113a1565b60405180910390f35b3480156101ea57600080fd5b5061020560048036038101906102009190611542565b61062b565b6040516102129190611527565b60405180910390f35b34801561022757600080fd5b5061023061065a565b60405161023d91906115b1565b60405180910390f35b34801561025257600080fd5b5061025b610663565b60405161026891906113a1565b60405180910390f35b61028b600480360381019061028691906115cc565b610669565b60405161029891906113a1565b60405180910390f35b3480156102ad57600080fd5b506102b6610854565b6040516102c391906113a1565b60405180910390f35b6102d461085a565b6040516102e191906113a1565b60405180910390f35b3480156102f657600080fd5b50610311600480360381019061030c91906115cc565b610943565b60405161031e91906113a1565b60405180910390f35b34801561033357600080fd5b5061034e600480360381019061034991906115f9565b61095b565b60405161035b91906113a1565b60405180910390f35b34801561037057600080fd5b5061038b600480360381019061038691906115cc565b6109a3565b60405161039891906113a1565b60405180910390f35b3480156103ad57600080fd5b506103c860048036038101906103c391906115cc565b610ad7565b6040516103d591906113a1565b60405180910390f35b3480156103ea57600080fd5b506103f3610aef565b604051610400919061144c565b60405180910390f35b34801561041557600080fd5b50610430600480360381019061042b91906114cc565b610b81565b60405161043d9190611527565b60405180910390f35b34801561045257600080fd5b5061045b610ba4565b6040516104689190611685565b60405180910390f35b34801561047d57600080fd5b50610498600480360381019061049391906116a0565b610bca565b6040516104a591906113a1565b60405180910390f35b60008084116104f2576040517f08c379a00000000000000000000000000000000000000000000000000000000081526004016104e99061172c565b60405180910390fd5b6000831180156105025750600082115b610541576040517f08c379a000000000000000000000000000000000000000000000000000000000815260040161053890611798565b60405180910390fd5b838361054d91906117e7565b8285610559919061181b565b610563919061188c565b90509392505050565b60606003805461057b906118ec565b80601f01602080910402602001604051908101604052809291908181526020018280546105a7906118ec565b80156105f45780601f106105c9576101008083540402835291602001916105f4565b820191906000526020600020905b8154815290600101906020018083116105d757829003601f168201915b5050505050905090565b600080610609610c51565b9050610616818585610c59565b600191505092915050565b6000600254905090565b600080610636610c51565b9050610643858285610c6b565b61064e858585610cff565b60019150509392505050565b60006012905090565b60065481565b600080349050600560009054906101000a900473ffffffffffffffffffffffffffffffffffffffff1673ffffffffffffffffffffffffffffffffffffffff166323b872dd3330866040518463ffffffff1660e01b81526004016106ce9392919061192c565b6020604051808303816000875af11580156106ed573d6000803e3d6000fd5b505050506040513d601f19601f82011682018060405250810190610711919061198f565b50600061071c610621565b9050600081036107415761073a8483610735919061181b565b610df3565b925061077e565b61077b6006548284610753919061181b565b61075d919061188c565b600754838761076c919061181b565b610776919061188c565b610e6d565b92505b600083116107c1576040517f08c379a00000000000000000000000000000000000000000000000000000000081526004016107b890611a08565b60405180910390fd5b81600660008282546107d391906117e7565b9250508190555083600760008282546107ec91906117e7565b925050819055506107fd3384610e86565b3373ffffffffffffffffffffffffffffffffffffffff167f4c209b5fc8ad50758f13e2e1088ba56a560dff690a1c6fef26394f4c03821c4f8386604051610845929190611a28565b60405180910390a25050919050565b60075481565b600061086b346006546007546104ae565b9050600560009054906101000a900473ffffffffffffffffffffffffffffffffffffffff1673ffffffffffffffffffffffffffffffffffffffff1663a9059cbb33836040518363ffffffff1660e01b81526004016108ca929190611a51565b6020604051808303816000875af11580156108e9573d6000803e3d6000fd5b505050506040513d601f19601f8201168201806040525081019061090d919061198f565b50346006600082825461092091906117e7565b9250508190555080600760008282546109399190611a7a565b9250508190555090565b6000610954826006546007546104ae565b9050919050565b60008060008373ffffffffffffffffffffffffffffffffffffffff1673ffffffffffffffffffffffffffffffffffffffff168152602001908152602001600020549050919050565b60006109b4826007546006546104ae565b90503373ffffffffffffffffffffffffffffffffffffffff166108fc829081150290604051600060405180830381858888f193505050501580156109fc573d6000803e3d6000fd5b50600560009054906101000a900473ffffffffffffffffffffffffffffffffffffffff1673ffffffffffffffffffffffffffffffffffffffff166323b872dd3330856040518463ffffffff1660e01b8152600401610a5c9392919061192c565b6020604051808303816000875af1158015610a7b573d6000803e3d6000fd5b505050506040513d601f19601f82011682018060405250810190610a9f919061198f565b508060066000828254610ab29190611a7a565b925050819055508160076000828254610acb91906117e7565b92505081905550919050565b6000610ae8826007546006546104ae565b9050919050565b606060048054610afe906118ec565b80601f0160208091040260200160405190810160405280929190818152602001828054610b2a906118ec565b8015610b775780601f10610b4c57610100808354040283529160200191610b77565b820191906000526020600020905b815481529060010190602001808311610b5a57829003601f168201915b5050505050905090565b600080610b8c610c51565b9050610b99818585610cff565b600191505092915050565b600560009054906101000a900473ffffffffffffffffffffffffffffffffffffffff1681565b6000600160008473ffffffffffffffffffffffffffffffffffffffff1673ffffffffffffffffffffffffffffffffffffffff16815260200190815260200160002060008373ffffffffffffffffffffffffffffffffffffffff1673ffffffffffffffffffffffffffffffffffffffff16815260200190815260200160002054905092915050565b600033905090565b610c668383836001610f08565b505050565b6000610c778484610bca565b90507fffffffffffffffffffffffffffffffffffffffffffffffffffffffffffffffff8114610cf95781811015610ce9578281836040517ffb8f41b2000000000000000000000000000000000000000000000000000000008152600401610ce093929190611aae565b60405180910390fd5b610cf884848484036000610f08565b5b50505050565b600073ffffffffffffffffffffffffffffffffffffffff168373ffffffffffffffffffffffffffffffffffffffff1603610d715760006040517f96c6fd1e000000000000000000000000000000000000000000000000000000008152600401610d689190611ae5565b60405180910390fd5b600073ffffffffffffffffffffffffffffffffffffffff168273ffffffffffffffffffffffffffffffffffffffff1603610de35760006040517fec442f05000000000000000000000000000000000000000000000000000000008152600401610dda9190611ae5565b60405180910390fd5b610dee8383836110df565b505050565b60006003821115610e5a5781905060006001600284610e12919061188c565b610e1c91906117e7565b90505b81811015610e54578091506002818285610e39919061188c565b610e4391906117e7565b610e4d919061188c565b9050610e1f565b50610e68565b60008214610e6757600190505b5b919050565b6000818310610e7c5781610e7e565b825b905092915050565b600073ffffffffffffffffffffffffffffffffffffffff168273ffffffffffffffffffffffffffffffffffffffff1603610ef85760006040517fec442f05000000000000000000000000000000000000000000000000000000008152600401610eef9190611ae5565b60405180910390fd5b610f04600083836110df565b5050565b600073ffffffffffffffffffffffffffffffffffffffff168473ffffffffffffffffffffffffffffffffffffffff1603610f7a5760006040517fe602df05000000000000000000000000000000000000000000000000000000008152600401610f719190611ae5565b60405180910390fd5b600073ffffffffffffffffffffffffffffffffffffffff168373ffffffffffffffffffffffffffffffffffffffff1603610fec5760006040517f94280d62000000000000000000000000000000000000000000000000000000008152600401610fe39190611ae5565b60405180910390fd5b81600160008673ffffffffffffffffffffffffffffffffffffffff1673ffffffffffffffffffffffffffffffffffffffff16815260200190815260200160002060008573ffffffffffffffffffffffffffffffffffffffff1673ffffffffffffffffffffffffffffffffffffffff1681526020019081526020016000208190555080156110d9578273ffffffffffffffffffffffffffffffffffffffff168473ffffffffffffffffffffffffffffffffffffffff167f8c5be1e5ebec7d5bd14f71427d1e84f3dd0314c0f7b2291e5b200ac8c7c3b925846040516110d091906113a1565b60405180910390a35b50505050565b600073ffffffffffffffffffffffffffffffffffffffff168373ffffffffffffffffffffffffffffffffffffffff160361113157806002600082825461112591906117e7565b92505081905550611204565b60008060008573ffffffffffffffffffffffffffffffffffffffff1673ffffffffffffffffffffffffffffffffffffffff168152602001908152602001600020549050818110156111bd578381836040517fe450d38c0000000000000000000000000000000000000000000000000000000081526004016111b493929190611aae565b60405180910390fd5b8181036000808673ffffffffffffffffffffffffffffffffffffffff1673ffffffffffffffffffffffffffffffffffffffff16815260200190815260200160002081905550505b600073ffffffffffffffffffffffffffffffffffffffff168273ffffffffffffffffffffffffffffffffffffffff160361124d578060026000828254039250508190555061129a565b806000808473ffffffffffffffffffffffffffffffffffffffff1673ffffffffffffffffffffffffffffffffffffffff168152602001908152602001600020600082825401925050819055505b8173ffffffffffffffffffffffffffffffffffffffff168373ffffffffffffffffffffffffffffffffffffffff167fddf252ad1be2c89b69c2b068fc378daa952ba7f163c4a11628f55a4df523b3ef836040516112f791906113a1565b60405180910390a3505050565b600080fd5b6000819050919050565b61131c81611309565b811461132757600080fd5b50565b60008135905061133981611313565b92915050565b60008060006060848603121561135857611357611304565b5b60006113668682870161132a565b93505060206113778682870161132a565b92505060406113888682870161132a565b9150509250925092565b61139b81611309565b82525050565b60006020820190506113b66000830184611392565b92915050565b600081519050919050565b600082825260208201905092915050565b60005b838110156113f65780820151818401526020810190506113db565b60008484015250505050565b6000601f19601f8301169050919050565b600061141e826113bc565b61142881856113c7565b93506114388185602086016113d8565b61144181611402565b840191505092915050565b600060208201905081810360008301526114668184611413565b905092915050565b600073ffffffffffffffffffffffffffffffffffffffff82169050919050565b60006114998261146e565b9050919050565b6114a98161148e565b81146114b457600080fd5b50565b6000813590506114c6816114a0565b92915050565b600080604083850312156114e3576114e2611304565b5b60006114f1858286016114b7565b92505060206115028582860161132a565b9150509250929050565b60008115159050919050565b6115218161150c565b82525050565b600060208201905061153c6000830184611518565b92915050565b60008060006060848603121561155b5761155a611304565b5b6000611569868287016114b7565b935050602061157a868287016114b7565b925050604061158b8682870161132a565b9150509250925092565b600060ff82169050919050565b6115ab81611595565b82525050565b60006020820190506115c660008301846115a2565b92915050565b6000602082840312156115e2576115e1611304565b5b60006115f08482850161132a565b91505092915050565b60006020828403121561160f5761160e611304565b5b600061161d848285016114b7565b91505092915050565b6000819050919050565b600061164b6116466116418461146e565b611626565b61146e565b9050919050565b600061165d82611630565b9050919050565b600061166f82611652565b9050919050565b61167f81611664565b82525050565b600060208201905061169a6000830184611676565b92915050565b600080604083850312156116b7576116b6611304565b5b60006116c5858286016114b7565b92505060206116d6858286016114b7565b9150509250929050565b7f494e53554646494349454e545f414d4f554e5400000000000000000000000000600082015250565b60006117166013836113c7565b9150611721826116e0565b602082019050919050565b6000602082019050818103600083015261174581611709565b9050919050565b7f494e53554646494349454e545f4c495155494449545900000000000000000000600082015250565b60006117826016836113c7565b915061178d8261174c565b602082019050919050565b600060208201905081810360008301526117b181611775565b9050919050565b7f4e487b7100000000000000000000000000000000000000000000000000000000600052601160045260246000fd5b60006117f282611309565b91506117fd83611309565b9250828201905080821115611815576118146117b8565b5b92915050565b600061182682611309565b915061183183611309565b925082820261183f81611309565b91508282048414831517611856576118556117b8565b5b5092915050565b7f4e487b7100000000000000000000000000000000000000000000000000000000600052601260045260246000fd5b600061189782611309565b91506118a283611309565b9250826118b2576118b161185d565b5b828204905092915050565b7f4e487b7100000000000000000000000000000000000000000000000000000000600052602260045260246000fd5b6000600282049050600182168061190457607f821691505b602082108103611917576119166118bd565b5b50919050565b6119268161148e565b82525050565b6000606082019050611941600083018661191d565b61194e602083018561191d565b61195b6040830184611392565b949350505050565b61196c8161150c565b811461197757600080fd5b50565b60008151905061198981611963565b92915050565b6000602082840312156119a5576119a4611304565b5b60006119b38482850161197a565b91505092915050565b7f494e53554646494349454e545f4c49515549444954595f4d494e544544000000600082015250565b60006119f2601d836113c7565b91506119fd826119bc565b602082019050919050565b60006020820190508181036000830152611a21816119e5565b9050919050565b6000604082019050611a3d6000830185611392565b611a4a6020830184611392565b9392505050565b6000604082019050611a66600083018561191d565b611a736020830184611392565b9392505050565b6000611a8582611309565b9150611a9083611309565b9250828203905081811115611aa857611aa76117b8565b5b92915050565b6000606082019050611ac3600083018661191d565b611ad06020830185611392565b611add6040830184611392565b949350505050565b6000602082019050611afa600083018461191d565b9291505056fea264697066735822122006e7b87a9cf8bcf6de002d57a4a610674e5c705bb11a54ea57cb2c3f258ee40764736f6c634300081b0033",
  "linkReferences": {},
  "deployedLinkReferences": {}
}